:0200000480007A
:100000006F00000B1300000013000000130000003D
:100010001300000013000000130000001300000094
:10002000232E11FE232C51FE232A61FE232871FE6C
:100030002326A1FE2324B1FE2322C1FE2320D1FECC
:10004000232EE1FC232CF1FC232A01FD232811FDA2
:100050002326C1FD2324D1FD2322E1FD2320F1FD30
:10006000130101FCEF00403B8320C1038322810385
:1000700003234103832301030325C1028325810256
:1000800003264102832601020327C1018327810140
:100090000328410183280101032EC100832E810022
:1000A000032F4100832F010013010104730020304E
:1000B00097110000938101C0138101001705000012
:1000C0001305453F970500009385C53E6308B500BD
:1000D00023200500130545006FF05FFF17050000A2
:1000E0001305453D1301C1FF970500009385853C2D
:1000F000630EB50083260500130545002320A100EB
:10010000E7800600032501006FF01FFE1301410088
:10011000371500001305058873104530372500009A
:100120001305858073100530EF0040296F00000033
:10013000130101FE232E8100130401022326A4FED5
:100140008327C4FE23A007008327C4FE23A407003F
:10015000130000000324C1011301010267800000A5
:10016000130101FE232E8100130401022326A4FEA5
:10017000130000000324C101130101026780000085
:10018000130101FE232E8100130401022326A4FE85
:100190008327C4FE23A207008327C4FE1307F0FFB2
:1001A00023A0E700130000000324C1011301010292
:1001B00067800000130101FE232E81001304010259
:1001C0002326A4FE8327C4FE83A7470093D70701F5
:1001D00093F7F70F138507000324C10113010102F0
:1001E00067800000130101FE232E81001304010229
:1001F0002326A4FE8327C4FE83A7470093D7870145
:10020000138507000324C101130101026780000068
:10021000130101FE232E1100232C8100130401027F
:100220002326A4FE2324B4FE130000000325C4FEED
:10023000EFF05FF893070500E38A07FE8327C4FE0B
:10024000032784FE23A0E700130000008320C101E0
:10025000032481011301010267800000130101FEE4
:10026000232E8100130401022326A4FE2324B4FEBE
:10027000832784FE03A7C7008327C4FE23A4E700C7
:10028000832784FE83A707001387F7FF832784FE55
:1002900083A74700939787003367F700832784FE7F
:1002A00083A78700939707013367F7008327C4FE6E
:1002B00023A6E700130000000324C101130101027B
:1002C00067800000130101FE232E81001304010248
:1002D0002326A4FE8327C4FE83A7070093F72700E5
:1002E000B337F00093F7F70F138507000324C1011C
:1002F0001301010267800000130101FE232E81001B
:10030000130401022326A4FE8327C4FE1307100052
:1003100023A0E700130000000324C1011301010220
:1003200067800000130101FE232E1100232C8100A1
:10033000130401022326A4FE8327C4FE23A0070082
:10034000130000000325C4FEEFF0DFF7930705005C
:10035000E39A07FE130000008320C10103248101FA
:100360001301010267800000130101FE232E11001A
:10037000232C8100130401022326A4FE6F00000237
:100380008327C4FE138717002326E4FE83C70700D4
:1003900093850700370501F0EFF09FE78327C4FE40
:1003A00083C70700E39E07FC130000008320C10100
:1003B000032481011301010267800000130101FE83
:1003C000232E1100232C81001304010293078000C7
:1003D0002320F4FE232204FE232404FE9307B00608
:1003E0002326F4FE930704FE93850700370501F0EA
:1003F000EFF0DFE6B707008013854749EFF0DFF63F
:1004000093070000138507008320C10103248101A5
:100410001301010267800000130101FF2326810000
:1004200013040101130000000324C10013010101A2
:0404300067800000E1
:10043400600000002003000070000000F0020000D3
:10044400020000000D0200000C000000EC0100009E
:1004540008000000460000001000000040000000FA
:100464000200000030000000080000002800000026
:1004740008000000B800000010000000B0000000F8
:100484000200000082000000060000007E00000060
:1004940048656C6C6F20576F726C642066726F6D68
:0904A40020496E637573210A0002
:040000058000000077
:00000001FF
